{
  "contractName": "TokenVestingSingleWFC",
  "abi": [
    {
      "inputs": [
        {
          "name": "beneficiary",
          "type": "address"
        },
        {
          "name": "start",
          "type": "uint256"
        },
        {
          "name": "cliffDuration",
          "type": "uint256"
        },
        {
          "name": "duration",
          "type": "uint256"
        }
      ],
      "payable": false,
      "stateMutability": "nonpayable",
      "type": "constructor",
      "signature": "constructor"
    },
    {
      "anonymous": false,
      "inputs": [
        {
          "indexed": false,
          "name": "token",
          "type": "address"
        },
        {
          "indexed": false,
          "name": "amount",
          "type": "uint256"
        }
      ],
      "name": "TokensReleased",
      "type": "event",
      "signature": "0xc7798891864187665ac6dd119286e44ec13f014527aeeb2b8eb3fd413df93179"
    },
    {
      "constant": true,
      "inputs": [],
      "name": "beneficiary",
      "outputs": [
        {
          "name": "",
          "type": "address"
        }
      ],
      "payable": false,
      "stateMutability": "view",
      "type": "function",
      "signature": "0x38af3eed"
    },
    {
      "constant": true,
      "inputs": [],
      "name": "cliff",
      "outputs": [
        {
          "name": "",
          "type": "uint256"
        }
      ],
      "payable": false,
      "stateMutability": "view",
      "type": "function",
      "signature": "0x13d033c0"
    },
    {
      "constant": true,
      "inputs": [],
      "name": "start",
      "outputs": [
        {
          "name": "",
          "type": "uint256"
        }
      ],
      "payable": false,
      "stateMutability": "view",
      "type": "function",
      "signature": "0xbe9a6555"
    },
    {
      "constant": true,
      "inputs": [],
      "name": "duration",
      "outputs": [
        {
          "name": "",
          "type": "uint256"
        }
      ],
      "payable": false,
      "stateMutability": "view",
      "type": "function",
      "signature": "0x0fb5a6b4"
    },
    {
      "constant": true,
      "inputs": [
        {
          "name": "token",
          "type": "address"
        }
      ],
      "name": "released",
      "outputs": [
        {
          "name": "",
          "type": "uint256"
        }
      ],
      "payable": false,
      "stateMutability": "view",
      "type": "function",
      "signature": "0x9852595c"
    },
    {
      "constant": false,
      "inputs": [
        {
          "name": "token",
          "type": "address"
        }
      ],
      "name": "release",
      "outputs": [],
      "payable": false,
      "stateMutability": "nonpayable",
      "type": "function",
      "signature": "0x19165587"
    }
  ],
  "bytecode": "0x608060405234801561001057600080fd5b50604051608080610c138339810180604052608081101561003057600080fd5b5080516020820151604083015160609093015191929091600160a060020a03841615156100e457604080517f08c379a000000000000000000000000000000000000000000000000000000000815260206004820152602d60248201527f546f6b656e56657374696e673a2062656e65666963696172792069732074686560448201527f207a65726f206164647265737300000000000000000000000000000000000000606482015290519081900360840190fd5b8082111561017957604080517f08c379a000000000000000000000000000000000000000000000000000000000815260206004820152602b60248201527f546f6b656e56657374696e673a20636c696666206973206c6f6e67657220746860448201527f616e206475726174696f6e000000000000000000000000000000000000000000606482015290519081900360840190fd5b600081116101e857604080517f08c379a000000000000000000000000000000000000000000000000000000000815260206004820152601b60248201527f546f6b656e56657374696e673a206475726174696f6e20697320300000000000604482015290519081900360640190fd5b4261020084836401000000006102e56102d782021704565b1161029257604080517f08c379a000000000000000000000000000000000000000000000000000000000815260206004820152602f60248201527f546f6b656e56657374696e673a2066696e616c2074696d65206973206265666f60448201527f72652063757272656e742074696d650000000000000000000000000000000000606482015290519081900360840190fd5b60008054600160a060020a031916600160a060020a03861617905560038190556102c983836401000000006102d781026102e51704565b600155505060025550610352565b60008282018381101561034b57604080517f08c379a000000000000000000000000000000000000000000000000000000000815260206004820152601b60248201527f536166654d6174683a206164646974696f6e206f766572666c6f770000000000604482015290519081900360640190fd5b9392505050565b6108b2806103616000396000f3fe6080604052600436106100775763ffffffff7c01000000000000000000000000000000000000000000000000000000006000350416630fb5a6b4811461007c57806313d033c0146100a357806319165587146100b857806338af3eed146100ed5780639852595c1461011e578063be9a655514610151575b600080fd5b34801561008857600080fd5b50610091610166565b60408051918252519081900360200190f35b3480156100af57600080fd5b5061009161016c565b3480156100c457600080fd5b506100eb600480360360208110156100db57600080fd5b5035600160a060020a0316610172565b005b3480156100f957600080fd5b50610102610279565b60408051600160a060020a039092168252519081900360200190f35b34801561012a57600080fd5b506100916004803603602081101561014157600080fd5b5035600160a060020a0316610288565b34801561015d57600080fd5b506100916102a7565b60035490565b60015490565b600061017d826102ad565b9050600081116101d7576040805160e560020a62461bcd02815260206004820152601f60248201527f546f6b656e56657374696e673a206e6f20746f6b656e73206172652064756500604482015290519081900360640190fd5b600160a060020a038216600090815260046020526040902054610200908263ffffffff6102e516565b600160a060020a0380841660008181526004602052604081209390935591546102319291168363ffffffff61034916565b60408051600160a060020a03841681526020810183905281517fc7798891864187665ac6dd119286e44ec13f014527aeeb2b8eb3fd413df93179929181900390910190a15050565b600054600160a060020a031690565b600160a060020a0381166000908152600460205260409020545b919050565b60025490565b600160a060020a0381166000908152600460205260408120546102df906102d3846103ce565b9063ffffffff61050716565b92915050565b600082820183811015610342576040805160e560020a62461bcd02815260206004820152601b60248201527f536166654d6174683a206164646974696f6e206f766572666c6f770000000000604482015290519081900360640190fd5b9392505050565b60408051600160a060020a038416602482015260448082018490528251808303909101815260649091019091526020810180517bffffffffffffffffffffffffffffffffffffffffffffffffffffffff167fa9059cbb000000000000000000000000000000000000000000000000000000001790526103c9908490610567565b505050565b604080517f70a0823100000000000000000000000000000000000000000000000000000000815230600482015290516000918291600160a060020a038516916370a08231916024808301926020929190829003018186803b15801561043257600080fd5b505afa158015610446573d6000803e3d6000fd5b505050506040513d602081101561045c57600080fd5b5051600160a060020a0384166000908152600460205260408120549192509061048c90839063ffffffff6102e516565b90506001544210156104a3576000925050506102a2565b6003546002546104b89163ffffffff6102e516565b42106104c75791506102a29050565b6104fe6003546104f26104e56002544261050790919063ffffffff16565b849063ffffffff61077316565b9063ffffffff61080f16565b925050506102a2565b600082821115610561576040805160e560020a62461bcd02815260206004820152601e60248201527f536166654d6174683a207375627472616374696f6e206f766572666c6f770000604482015290519081900360640190fd5b50900390565b61057982600160a060020a031661087e565b15156105cf576040805160e560020a62461bcd02815260206004820152601f60248201527f5361666545524332303a2063616c6c20746f206e6f6e2d636f6e747261637400604482015290519081900360640190fd5b6000606083600160a060020a0316836040518082805190602001908083835b6020831061060d5780518252601f1990920191602091820191016105ee565b6001836020036101000a0380198251168184511680821785525050505050509050019150506000604051808303816000865af19150503d806000811461066f576040519150601f19603f3d011682016040523d82523d6000602084013e610674565b606091505b50915091508115156106d0576040805160e560020a62461bcd02815260206004820181905260248201527f5361666545524332303a206c6f772d6c6576656c2063616c6c206661696c6564604482015290519081900360640190fd5b60008151111561076d578080602001905160208110156106ef57600080fd5b5051151561076d576040805160e560020a62461bcd02815260206004820152602a60248201527f5361666545524332303a204552433230206f7065726174696f6e20646964206e60448201527f6f74207375636365656400000000000000000000000000000000000000000000606482015290519081900360840190fd5b50505050565b6000821515610784575060006102df565b82820282848281151561079357fe5b0414610342576040805160e560020a62461bcd02815260206004820152602160248201527f536166654d6174683a206d756c7469706c69636174696f6e206f766572666c6f60448201527f7700000000000000000000000000000000000000000000000000000000000000606482015290519081900360840190fd5b6000808211610868576040805160e560020a62461bcd02815260206004820152601a60248201527f536166654d6174683a206469766973696f6e206279207a65726f000000000000604482015290519081900360640190fd5b6000828481151561087557fe5b04949350505050565b6000903b119056fea165627a7a72305820f6f48a077768e06c6800623b39762e71fd959341d6ebccabbf796e620ea05da90029",
  "source": "pragma solidity ^0.5.0;\n\n\n\n/**\n * @dev Wrappers over Solidity's arithmetic operations with added overflow\n * checks.\n *\n * Arithmetic operations in Solidity wrap on overflow. This can easily result\n * in bugs, because programmers usually assume that an overflow raises an\n * error, which is the standard behavior in high level programming languages.\n * `SafeMath` restores this intuition by reverting the transaction when an\n * operation overflows.\n *\n * Using this library instead of the unchecked operations eliminates an entire\n * class of bugs, so it's recommended to use it always.\n */\nlibrary SafeMath {\n    /**\n     * @dev Returns the addition of two unsigned integers, reverting on\n     * overflow.\n     *\n     * Counterpart to Solidity's `+` operator.\n     *\n     * Requirements:\n     * - Addition cannot overflow.\n     */\n    function add(uint256 a, uint256 b) internal pure returns (uint256) {\n        uint256 c = a + b;\n        require(c >= a, \"SafeMath: addition overflow\");\n\n        return c;\n    }\n\n    /**\n     * @dev Returns the subtraction of two unsigned integers, reverting on\n     * overflow (when the result is negative).\n     *\n     * Counterpart to Solidity's `-` operator.\n     *\n     * Requirements:\n     * - Subtraction cannot overflow.\n     */\n    function sub(uint256 a, uint256 b) internal pure returns (uint256) {\n        require(b <= a, \"SafeMath: subtraction overflow\");\n        uint256 c = a - b;\n\n        return c;\n    }\n\n    /**\n     * @dev Returns the multiplication of two unsigned integers, reverting on\n     * overflow.\n     *\n     * Counterpart to Solidity's `*` operator.\n     *\n     * Requirements:\n     * - Multiplication cannot overflow.\n     */\n    function mul(uint256 a, uint256 b) internal pure returns (uint256) {\n        // Gas optimization: this is cheaper than requiring 'a' not being zero, but the\n        // benefit is lost if 'b' is also tested.\n        // See: https://github.com/OpenZeppelin/openzeppelin-contracts/pull/522\n        if (a == 0) {\n            return 0;\n        }\n\n        uint256 c = a * b;\n        require(c / a == b, \"SafeMath: multiplication overflow\");\n\n        return c;\n    }\n\n    /**\n     * @dev Returns the integer division of two unsigned integers. Reverts on\n     * division by zero. The result is rounded towards zero.\n     *\n     * Counterpart to Solidity's `/` operator. Note: this function uses a\n     * `revert` opcode (which leaves remaining gas untouched) while Solidity\n     * uses an invalid opcode to revert (consuming all remaining gas).\n     *\n     * Requirements:\n     * - The divisor cannot be zero.\n     */\n    function div(uint256 a, uint256 b) internal pure returns (uint256) {\n        // Solidity only automatically asserts when dividing by 0\n        require(b > 0, \"SafeMath: division by zero\");\n        uint256 c = a / b;\n        // assert(a == b * c + a % b); // There is no case in which this doesn't hold\n\n        return c;\n    }\n}\n\ninterface IERC20 {\n    /**\n     * @dev Returns the amount of tokens in existence.\n     */\n    function totalSupply() external view returns (uint256);\n\n    /**\n     * @dev Returns the amount of tokens owned by `account`.\n     */\n    function balanceOf(address account) external view returns (uint256);\n\n    /**\n     * @dev Moves `amount` tokens from the caller's account to `recipient`.\n     *\n     * Returns a boolean value indicating whether the operation succeeded.\n     *\n     * Emits a `Transfer` event.\n     */\n    function transfer(address recipient, uint256 amount) external returns (bool);\n\n    /**\n     * @dev Returns the remaining number of tokens that `spender` will be\n     * allowed to spend on behalf of `owner` through `transferFrom`. This is\n     * zero by default.\n     *\n     * This value changes when `approve` or `transferFrom` are called.\n     */\n    function allowance(address owner, address spender) external view returns (uint256);\n\n    /**\n     * @dev Sets `amount` as the allowance of `spender` over the caller's tokens.\n     *\n     * Returns a boolean value indicating whether the operation succeeded.\n     *\n     * > Beware that changing an allowance with this method brings the risk\n     * that someone may use both the old and the new allowance by unfortunate\n     * transaction ordering. One possible solution to mitigate this race\n     * condition is to first reduce the spender's allowance to 0 and set the\n     * desired value afterwards:\n     * https://github.com/ethereum/EIPs/issues/20#issuecomment-263524729\n     *\n     * Emits an `Approval` event.\n     */\n    function approve(address spender, uint256 amount) external returns (bool);\n\n    /**\n     * @dev Moves `amount` tokens from `sender` to `recipient` using the\n     * allowance mechanism. `amount` is then deducted from the caller's\n     * allowance.\n     *\n     * Returns a boolean value indicating whether the operation succeeded.\n     *\n     * Emits a `Transfer` event.\n     */\n    function transferFrom(address sender, address recipient, uint256 amount) external returns (bool);\n\n    /**\n     * @dev Emitted when `value` tokens are moved from one account (`from`) to\n     * another (`to`).\n     *\n     * Note that `value` may be zero.\n     */\n    event Transfer(address indexed from, address indexed to, uint256 value);\n\n    /**\n     * @dev Emitted when the allowance of a `spender` for an `owner` is set by\n     * a call to `approve`. `value` is the new allowance.\n     */\n    event Approval(address indexed owner, address indexed spender, uint256 value);\n}\n\n/**\n * @dev Collection of functions related to the address type,\n */\nlibrary Address {\n    /**\n     * @dev Returns true if `account` is a contract.\n     *\n     * This test is non-exhaustive, and there may be false-negatives: during the\n     * execution of a contract's constructor, its address will be reported as\n     * not containing a contract.\n     *\n     * > It is unsafe to assume that an address for which this function returns\n     * false is an externally-owned account (EOA) and not a contract.\n     */\n    function isContract(address account) internal view returns (bool) {\n        // This method relies in extcodesize, which returns 0 for contracts in\n        // construction, since the code is only stored at the end of the\n        // constructor execution.\n\n        uint256 size;\n        // solhint-disable-next-line no-inline-assembly\n        assembly { size := extcodesize(account) }\n        return size > 0;\n    }\n}\n\n\n/**\n * @title SafeERC20\n * @dev Wrappers around ERC20 operations that throw on failure (when the token\n * contract returns false). Tokens that return no value (and instead revert or\n * throw on failure) are also supported, non-reverting calls are assumed to be\n * successful.\n * To use this library you can add a `using SafeERC20 for ERC20;` statement to your contract,\n * which allows you to call the safe operations as `token.safeTransfer(...)`, etc.\n */\nlibrary SafeERC20 {\n    using SafeMath for uint256;\n    using Address for address;\n\n    function safeTransfer(IERC20 token, address to, uint256 value) internal {\n        callOptionalReturn(token, abi.encodeWithSelector(token.transfer.selector, to, value));\n    }\n\n    function safeTransferFrom(IERC20 token, address from, address to, uint256 value) internal {\n        callOptionalReturn(token, abi.encodeWithSelector(token.transferFrom.selector, from, to, value));\n    }\n\n    function safeApprove(IERC20 token, address spender, uint256 value) internal {\n        // safeApprove should only be called when setting an initial allowance,\n        // or when resetting it to zero. To increase and decrease it, use\n        // 'safeIncreaseAllowance' and 'safeDecreaseAllowance'\n        // solhint-disable-next-line max-line-length\n        require((value == 0) || (token.allowance(address(this), spender) == 0),\n            \"SafeERC20: approve from non-zero to non-zero allowance\"\n        );\n        callOptionalReturn(token, abi.encodeWithSelector(token.approve.selector, spender, value));\n    }\n\n    function safeIncreaseAllowance(IERC20 token, address spender, uint256 value) internal {\n        uint256 newAllowance = token.allowance(address(this), spender).add(value);\n        callOptionalReturn(token, abi.encodeWithSelector(token.approve.selector, spender, newAllowance));\n    }\n\n    function safeDecreaseAllowance(IERC20 token, address spender, uint256 value) internal {\n        uint256 newAllowance = token.allowance(address(this), spender).sub(value);\n        callOptionalReturn(token, abi.encodeWithSelector(token.approve.selector, spender, newAllowance));\n    }\n\n    /**\n     * @dev Imitates a Solidity high-level call (i.e. a regular function call to a contract), relaxing the requirement\n     * on the return value: the return value is optional (but if data is returned, it must not be false).\n     * @param token The token targeted by the call.\n     * @param data The call data (encoded using abi.encode or one of its variants).\n     */\n    function callOptionalReturn(IERC20 token, bytes memory data) private {\n        // We need to perform a low level call here, to bypass Solidity's return data size checking mechanism, since\n        // we're implementing it ourselves.\n\n        // A Solidity high level call has three parts:\n        //  1. The target address is checked to verify it contains contract code\n        //  2. The call itself is made, and success asserted\n        //  3. The return value is decoded, which in turn checks the size of the returned data.\n        // solhint-disable-next-line max-line-length\n        require(address(token).isContract(), \"SafeERC20: call to non-contract\");\n\n        // solhint-disable-next-line avoid-low-level-calls\n        (bool success, bytes memory returndata) = address(token).call(data);\n        require(success, \"SafeERC20: low-level call failed\");\n\n        if (returndata.length > 0) { // Return data is optional\n            // solhint-disable-next-line max-line-length\n            require(abi.decode(returndata, (bool)), \"SafeERC20: ERC20 operation did not succeed\");\n        }\n    }\n}\n\n/**\n * @title TokenVesting\n * @dev A token holder contract that can release its token balance gradually like a\n * typical vesting scheme, with a cliff and vesting period. Optionally revocable by the\n * owner.\n */\ncontract TokenVestingSingleWFC {\n    // The vesting schedule is time-based (i.e. using block timestamps as opposed to e.g. block numbers), and is\n    // therefore sensitive to timestamp manipulation (which is something miners can do, to a certain degree). Therefore,\n    // it is recommended to avoid using short time durations (less than a minute). Typical vesting schemes, with a\n    // cliff period of a year and a duration of four years, are safe to use.\n    // solhint-disable not-rely-on-time\n\n    using SafeMath for uint256;\n    using SafeERC20 for IERC20;\n\n    event TokensReleased(address token, uint256 amount);\n\n    // beneficiary of tokens after they are released\n    address private _beneficiary;\n\n    // Durations and timestamps are expressed in UNIX time, the same units as block.timestamp.\n    uint256 private _cliff;\n    uint256 private _start;\n    uint256 private _duration;\n\n\n    mapping (address => uint256) private _released;\n\n\n    /**\n     * @dev Creates a vesting contract that vests its balance of any ERC20 token to the\n     * beneficiary, gradually in a linear fashion until start + duration. By then all\n     * of the balance will have vested.\n     * @param beneficiary address of the beneficiary to whom vested tokens are transferred\n     * @param cliffDuration duration in seconds of the cliff in which tokens will begin to vest\n     * @param start the time (as Unix time) at which point vesting starts\n     * @param duration duration in seconds of the period in which the tokens will vest\n     */\n    constructor (address beneficiary, uint256 start, uint256 cliffDuration, uint256 duration) public {\n        require(beneficiary != address(0), \"TokenVesting: beneficiary is the zero address\");\n        // solhint-disable-next-line max-line-length\n        require(cliffDuration <= duration, \"TokenVesting: cliff is longer than duration\");\n        require(duration > 0, \"TokenVesting: duration is 0\");\n        // solhint-disable-next-line max-line-length\n        require(start.add(duration) > block.timestamp, \"TokenVesting: final time is before current time\");\n\n        _beneficiary = beneficiary;\n        _duration = duration;\n        _cliff = start.add(cliffDuration);\n        _start = start;\n    }\n\n    /**\n     * @return the beneficiary of the tokens.\n     */\n    function beneficiary() public view returns (address) {\n        return _beneficiary;\n    }\n\n    /**\n     * @return the cliff time of the token vesting.\n     */\n    function cliff() public view returns (uint256) {\n        return _cliff;\n    }\n\n    /**\n     * @return the start time of the token vesting.\n     */\n    function start() public view returns (uint256) {\n        return _start;\n    }\n\n    /**\n     * @return the duration of the token vesting.\n     */\n    function duration() public view returns (uint256) {\n        return _duration;\n    }\n\n    /**\n     * @return the amount of the token released.\n     */\n    function released(address token) public view returns (uint256) {\n        return _released[token];\n    }\n\n    /**\n     * @notice Transfers vested tokens to beneficiary.\n     * @param token ERC20 token which is being vested\n     */\n    function release(IERC20 token) public {\n        uint256 unreleased = _releasableAmount(token);\n\n        require(unreleased > 0, \"TokenVesting: no tokens are due\");\n\n        _released[address(token)] = _released[address(token)].add(unreleased);\n\n        token.safeTransfer(_beneficiary, unreleased);\n\n        emit TokensReleased(address(token), unreleased);\n    }\n\n\n    /**\n     * @dev Calculates the amount that has already vested but hasn't been released yet.\n     * @param token ERC20 token which is being vested\n     */\n    function _releasableAmount(IERC20 token) private view returns (uint256) {\n        return _vestedAmount(token).sub(_released[address(token)]);\n    }\n\n    /**\n     * @dev Calculates the amount that has already vested.\n     * @param token ERC20 token which is being vested\n     */\n    function _vestedAmount(IERC20 token) private view returns (uint256) {\n        uint256 currentBalance = token.balanceOf(address(this));\n        uint256 totalBalance = currentBalance.add(_released[address(token)]);\n\n        if (block.timestamp < _cliff) {\n            return 0;\n        } else if (block.timestamp >= _start.add(_duration)) {\n            return totalBalance;\n        } else {\n            return totalBalance.mul(block.timestamp.sub(_start)).div(_duration);\n        }\n    }\n}\n",
  "sourcePath": "C:/Users/Alessandro/solidity_work/WFC/contracts/TokenVestingSingleWFC.sol",
  "compiler": {
    "name": "solc",
    "version": "0.5.0+commit.1d4f565a.Emscripten.clang"
  },
  "schemaVersion": "3.0.0",
  "updatedAt": "2019-10-01T13:41:55.331Z",
  "devdoc": {
    "details": "A token holder contract that can release its token balance gradually like a typical vesting scheme, with a cliff and vesting period. Optionally revocable by the owner.",
    "methods": {
      "beneficiary()": {
        "return": "the beneficiary of the tokens."
      },
      "cliff()": {
        "return": "the cliff time of the token vesting."
      },
      "constructor": {
        "details": "Creates a vesting contract that vests its balance of any ERC20 token to the beneficiary, gradually in a linear fashion until start + duration. By then all of the balance will have vested.",
        "params": {
          "beneficiary": "address of the beneficiary to whom vested tokens are transferred",
          "cliffDuration": "duration in seconds of the cliff in which tokens will begin to vest",
          "duration": "duration in seconds of the period in which the tokens will vest",
          "start": "the time (as Unix time) at which point vesting starts"
        }
      },
      "duration()": {
        "return": "the duration of the token vesting."
      },
      "release(address)": {
        "params": {
          "token": "ERC20 token which is being vested"
        }
      },
      "released(address)": {
        "return": "the amount of the token released."
      },
      "start()": {
        "return": "the start time of the token vesting."
      }
    },
    "title": "TokenVesting"
  },
  "userdoc": {
    "methods": {
      "release(address)": {
        "notice": "Transfers vested tokens to beneficiary."
      }
    }
  }
}